{
  "_format": "hh3-artifact-1",
  "contractName": "TokenSale",
  "sourceName": "contracts/TokenSale.sol",
  "abi": [
    {
      "inputs": [
        {
          "internalType": "uint256",
          "name": "_rate",
          "type": "uint256"
        },
        {
          "internalType": "address payable",
          "name": "_wallet",
          "type": "address"
        },
        {
          "internalType": "address",
          "name": "_token",
          "type": "address"
        }
      ],
      "stateMutability": "nonpayable",
      "type": "constructor"
    },
    {
      "inputs": [],
      "name": "ReentrancyGuardReentrantCall",
      "type": "error"
    },
    {
      "inputs": [
        {
          "internalType": "address",
          "name": "token",
          "type": "address"
        }
      ],
      "name": "SafeERC20FailedOperation",
      "type": "error"
    },
    {
      "anonymous": false,
      "inputs": [
        {
          "indexed": true,
          "internalType": "address",
          "name": "purchaser",
          "type": "address"
        },
        {
          "indexed": true,
          "internalType": "address",
          "name": "beneficiary",
          "type": "address"
        },
        {
          "indexed": false,
          "internalType": "uint256",
          "name": "value",
          "type": "uint256"
        },
        {
          "indexed": false,
          "internalType": "uint256",
          "name": "amount",
          "type": "uint256"
        }
      ],
      "name": "TokensPurchased",
      "type": "event"
    },
    {
      "inputs": [
        {
          "internalType": "address",
          "name": "beneficiary",
          "type": "address"
        }
      ],
      "name": "buyTokens",
      "outputs": [],
      "stateMutability": "payable",
      "type": "function"
    },
    {
      "inputs": [],
      "name": "getRate",
      "outputs": [
        {
          "internalType": "uint256",
          "name": "",
          "type": "uint256"
        }
      ],
      "stateMutability": "view",
      "type": "function"
    },
    {
      "inputs": [],
      "name": "getToken",
      "outputs": [
        {
          "internalType": "contract IERC20",
          "name": "",
          "type": "address"
        }
      ],
      "stateMutability": "view",
      "type": "function"
    },
    {
      "inputs": [],
      "name": "getWallet",
      "outputs": [
        {
          "internalType": "address payable",
          "name": "",
          "type": "address"
        }
      ],
      "stateMutability": "view",
      "type": "function"
    },
    {
      "inputs": [],
      "name": "getWeiReceived",
      "outputs": [
        {
          "internalType": "uint256",
          "name": "",
          "type": "uint256"
        }
      ],
      "stateMutability": "view",
      "type": "function"
    },
    {
      "stateMutability": "payable",
      "type": "receive"
    }
  ],
  "bytecode": "0x60c060405234801561000f575f5ffd5b5060405161079138038061079183398101604081905261002e9161019d565b60017f9b779b17422d0df92223018b32b4d1fa46e071723d6817e2486d003becc55f0055826100a45760405162461bcd60e51b815260206004820152601460248201527f546f6b656e53616c653a2072617465206973203000000000000000000000000060448201526064015b60405180910390fd5b6001600160a01b0382166101085760405162461bcd60e51b815260206004820152602560248201527f546f6b656e53616c653a2077616c6c657420697320746865207a65726f206164604482015264647265737360d81b606482015260840161009b565b6001600160a01b03811661016a5760405162461bcd60e51b8152602060048201526024808201527f546f6b656e53616c653a20746f6b656e20697320746865207a65726f206164646044820152637265737360e01b606482015260840161009b565b5f929092556001600160a01b0390811660a052166080526101dd565b6001600160a01b038116811461019a575f5ffd5b50565b5f5f5f606084860312156101af575f5ffd5b8351925060208401516101c181610186565b60408501519092506101d281610186565b809150509250925092565b60805160a0516105806102115f395f81816073015281816102e6015261041501525f818160be01526103f301526105805ff3fe60806040526004361061004c575f3560e01c8063132996041461006557806321df0da7146100b0578063679aefce146100e2578063c71dd683146100ff578063ec8ac4d814610113575f5ffd5b366100615761005f33610121565b610121565b005b5f5ffd5b348015610070575f5ffd5b507f00000000000000000000000000000000000000000000000000000000000000005b6040516001600160a01b0390911681526020015b60405180910390f35b3480156100bb575f5ffd5b507f0000000000000000000000000000000000000000000000000000000000000000610093565b3480156100ed575f5ffd5b505f545b6040519081526020016100a7565b34801561010a575f5ffd5b506001546100f1565b61005f61005a3660046104df565b6101296101d7565b346101348282610205565b5f61013e826102c6565b90508160015461014e9190610520565b60015561015b83826102d9565b60408051838152602081018390526001600160a01b0385169133917f6faf93231a456e552dbc9961f58d9713ee4f2e69d15f1975b050ef0911053a7b910160405180910390a36101a96102e3565b50506101d460017f9b779b17422d0df92223018b32b4d1fa46e071723d6817e2486d003becc55f0055565b50565b6101df6103a2565b60027f9b779b17422d0df92223018b32b4d1fa46e071723d6817e2486d003becc55f0055565b6001600160a01b0382166102735760405162461bcd60e51b815260206004820152602a60248201527f546f6b656e53616c653a2062656e656669636961727920697320746865207a65604482015269726f206164647265737360b01b60648201526084015b60405180910390fd5b805f036102c25760405162461bcd60e51b815260206004820152601960248201527f546f6b656e53616c653a20776569416d6f756e74206973203000000000000000604482015260640161026a565b5050565b5f80546102d39083610533565b92915050565b6102c282826103e6565b5f7f00000000000000000000000000000000000000000000000000000000000000006001600160a01b0316346040515f6040518083038185875af1925050503d805f811461034c576040519150601f19603f3d011682016040523d82523d5f602084013e610351565b606091505b50509050806101d45760405162461bcd60e51b815260206004820152601e60248201527f546f6b656e53616c653a20455448207472616e73666572206661696c65640000604482015260640161026a565b7f9b779b17422d0df92223018b32b4d1fa46e071723d6817e2486d003becc55f00546002036103e457604051633ee5aeb560e01b815260040160405180910390fd5b565b6102c26001600160a01b037f0000000000000000000000000000000000000000000000000000000000000000167f00000000000000000000000000000000000000000000000000000000000000008484610444848484846001610472565b61046c57604051635274afe760e01b81526001600160a01b038516600482015260240161026a565b50505050565b6040516323b872dd60e01b5f8181526001600160a01b038781166004528616602452604485905291602083606481808c5af1925060015f511483166104ce5783831516156104c2573d5f823e3d81fd5b5f883b113d1516831692505b604052505f60605295945050505050565b5f602082840312156104ef575f5ffd5b81356001600160a01b0381168114610505575f5ffd5b9392505050565b634e487b7160e01b5f52601160045260245ffd5b808201808211156102d3576102d361050c565b80820281158282048414176102d3576102d361050c56fea26469706673582212209dd5f9d441184aed32f74969b1d24c7deaeedc69e07a54516b1464603ffad02764736f6c634300081c0033",
  "linkReferences": {},
  "deployedLinkReferences": {},
  "immutableReferences": {
    "922": [
      {
        "length": 32,
        "start": 190
      },
      {
        "length": 32,
        "start": 1011
      }
    ],
    "924": [
      {
        "length": 32,
        "start": 115
      },
      {
        "length": 32,
        "start": 742
      },
      {
        "length": 32,
        "start": 1045
      }
    ]
  },
  "inputSourceName": "project/contracts/TokenSale.sol",
  "buildInfoId": "solc-0_8_28-de24bd05a3354dc4dbf6a87cff7e732eb18348cd"
}