{
  "_format": "hh3-artifact-1",
  "contractName": "TaxToken",
  "sourceName": "contracts/TaxToken.sol",
  "abi": [
    {
      "inputs": [
        {
          "internalType": "address",
          "name": "initialOwner",
          "type": "address"
        }
      ],
      "stateMutability": "nonpayable",
      "type": "constructor"
    },
    {
      "inputs": [
        {
          "internalType": "address",
          "name": "spender",
          "type": "address"
        },
        {
          "internalType": "uint256",
          "name": "allowance",
          "type": "uint256"
        },
        {
          "internalType": "uint256",
          "name": "needed",
          "type": "uint256"
        }
      ],
      "name": "ERC20InsufficientAllowance",
      "type": "error"
    },
    {
      "inputs": [
        {
          "internalType": "address",
          "name": "sender",
          "type": "address"
        },
        {
          "internalType": "uint256",
          "name": "balance",
          "type": "uint256"
        },
        {
          "internalType": "uint256",
          "name": "needed",
          "type": "uint256"
        }
      ],
      "name": "ERC20InsufficientBalance",
      "type": "error"
    },
    {
      "inputs": [
        {
          "internalType": "address",
          "name": "approver",
          "type": "address"
        }
      ],
      "name": "ERC20InvalidApprover",
      "type": "error"
    },
    {
      "inputs": [
        {
          "internalType": "address",
          "name": "receiver",
          "type": "address"
        }
      ],
      "name": "ERC20InvalidReceiver",
      "type": "error"
    },
    {
      "inputs": [
        {
          "internalType": "address",
          "name": "sender",
          "type": "address"
        }
      ],
      "name": "ERC20InvalidSender",
      "type": "error"
    },
    {
      "inputs": [
        {
          "internalType": "address",
          "name": "spender",
          "type": "address"
        }
      ],
      "name": "ERC20InvalidSpender",
      "type": "error"
    },
    {
      "inputs": [
        {
          "internalType": "address",
          "name": "owner",
          "type": "address"
        }
      ],
      "name": "OwnableInvalidOwner",
      "type": "error"
    },
    {
      "inputs": [
        {
          "internalType": "address",
          "name": "account",
          "type": "address"
        }
      ],
      "name": "OwnableUnauthorizedAccount",
      "type": "error"
    },
    {
      "anonymous": false,
      "inputs": [
        {
          "indexed": true,
          "internalType": "address",
          "name": "owner",
          "type": "address"
        },
        {
          "indexed": true,
          "internalType": "address",
          "name": "spender",
          "type": "address"
        },
        {
          "indexed": false,
          "internalType": "uint256",
          "name": "value",
          "type": "uint256"
        }
      ],
      "name": "Approval",
      "type": "event"
    },
    {
      "anonymous": false,
      "inputs": [
        {
          "indexed": true,
          "internalType": "address",
          "name": "account",
          "type": "address"
        },
        {
          "indexed": false,
          "internalType": "bool",
          "name": "isExcluded",
          "type": "bool"
        }
      ],
      "name": "ExcludedFromTaxStatus",
      "type": "event"
    },
    {
      "anonymous": false,
      "inputs": [
        {
          "indexed": true,
          "internalType": "address",
          "name": "previousOwner",
          "type": "address"
        },
        {
          "indexed": true,
          "internalType": "address",
          "name": "newOwner",
          "type": "address"
        }
      ],
      "name": "OwnershipTransferred",
      "type": "event"
    },
    {
      "anonymous": false,
      "inputs": [
        {
          "indexed": true,
          "internalType": "address",
          "name": "from",
          "type": "address"
        },
        {
          "indexed": true,
          "internalType": "address",
          "name": "toWallet",
          "type": "address"
        },
        {
          "indexed": false,
          "internalType": "uint256",
          "name": "amount",
          "type": "uint256"
        }
      ],
      "name": "TaxCollected",
      "type": "event"
    },
    {
      "anonymous": false,
      "inputs": [
        {
          "indexed": true,
          "internalType": "address",
          "name": "oldWallet",
          "type": "address"
        },
        {
          "indexed": true,
          "internalType": "address",
          "name": "newWallet",
          "type": "address"
        }
      ],
      "name": "TaxWalletUpdated",
      "type": "event"
    },
    {
      "anonymous": false,
      "inputs": [
        {
          "indexed": true,
          "internalType": "address",
          "name": "from",
          "type": "address"
        },
        {
          "indexed": true,
          "internalType": "address",
          "name": "to",
          "type": "address"
        },
        {
          "indexed": false,
          "internalType": "uint256",
          "name": "value",
          "type": "uint256"
        }
      ],
      "name": "Transfer",
      "type": "event"
    },
    {
      "inputs": [],
      "name": "TAX_RATE_BPS",
      "outputs": [
        {
          "internalType": "uint256",
          "name": "",
          "type": "uint256"
        }
      ],
      "stateMutability": "view",
      "type": "function"
    },
    {
      "inputs": [
        {
          "internalType": "address",
          "name": "owner",
          "type": "address"
        },
        {
          "internalType": "address",
          "name": "spender",
          "type": "address"
        }
      ],
      "name": "allowance",
      "outputs": [
        {
          "internalType": "uint256",
          "name": "",
          "type": "uint256"
        }
      ],
      "stateMutability": "view",
      "type": "function"
    },
    {
      "inputs": [
        {
          "internalType": "address",
          "name": "spender",
          "type": "address"
        },
        {
          "internalType": "uint256",
          "name": "value",
          "type": "uint256"
        }
      ],
      "name": "approve",
      "outputs": [
        {
          "internalType": "bool",
          "name": "",
          "type": "bool"
        }
      ],
      "stateMutability": "nonpayable",
      "type": "function"
    },
    {
      "inputs": [
        {
          "internalType": "address",
          "name": "account",
          "type": "address"
        }
      ],
      "name": "balanceOf",
      "outputs": [
        {
          "internalType": "uint256",
          "name": "",
          "type": "uint256"
        }
      ],
      "stateMutability": "view",
      "type": "function"
    },
    {
      "inputs": [],
      "name": "decimals",
      "outputs": [
        {
          "internalType": "uint8",
          "name": "",
          "type": "uint8"
        }
      ],
      "stateMutability": "view",
      "type": "function"
    },
    {
      "inputs": [
        {
          "internalType": "address",
          "name": "",
          "type": "address"
        }
      ],
      "name": "isExcludedFromTax",
      "outputs": [
        {
          "internalType": "bool",
          "name": "",
          "type": "bool"
        }
      ],
      "stateMutability": "view",
      "type": "function"
    },
    {
      "inputs": [],
      "name": "name",
      "outputs": [
        {
          "internalType": "string",
          "name": "",
          "type": "string"
        }
      ],
      "stateMutability": "view",
      "type": "function"
    },
    {
      "inputs": [],
      "name": "owner",
      "outputs": [
        {
          "internalType": "address",
          "name": "",
          "type": "address"
        }
      ],
      "stateMutability": "view",
      "type": "function"
    },
    {
      "inputs": [],
      "name": "renounceOwnership",
      "outputs": [],
      "stateMutability": "nonpayable",
      "type": "function"
    },
    {
      "inputs": [
        {
          "internalType": "address",
          "name": "account",
          "type": "address"
        },
        {
          "internalType": "bool",
          "name": "status",
          "type": "bool"
        }
      ],
      "name": "setExcludedFromTax",
      "outputs": [],
      "stateMutability": "nonpayable",
      "type": "function"
    },
    {
      "inputs": [
        {
          "internalType": "address",
          "name": "newTaxWallet",
          "type": "address"
        }
      ],
      "name": "setTaxWallet",
      "outputs": [],
      "stateMutability": "nonpayable",
      "type": "function"
    },
    {
      "inputs": [],
      "name": "symbol",
      "outputs": [
        {
          "internalType": "string",
          "name": "",
          "type": "string"
        }
      ],
      "stateMutability": "view",
      "type": "function"
    },
    {
      "inputs": [],
      "name": "taxWallet",
      "outputs": [
        {
          "internalType": "address",
          "name": "",
          "type": "address"
        }
      ],
      "stateMutability": "view",
      "type": "function"
    },
    {
      "inputs": [],
      "name": "totalSupply",
      "outputs": [
        {
          "internalType": "uint256",
          "name": "",
          "type": "uint256"
        }
      ],
      "stateMutability": "view",
      "type": "function"
    },
    {
      "inputs": [
        {
          "internalType": "address",
          "name": "to",
          "type": "address"
        },
        {
          "internalType": "uint256",
          "name": "value",
          "type": "uint256"
        }
      ],
      "name": "transfer",
      "outputs": [
        {
          "internalType": "bool",
          "name": "",
          "type": "bool"
        }
      ],
      "stateMutability": "nonpayable",
      "type": "function"
    },
    {
      "inputs": [
        {
          "internalType": "address",
          "name": "from",
          "type": "address"
        },
        {
          "internalType": "address",
          "name": "to",
          "type": "address"
        },
        {
          "internalType": "uint256",
          "name": "value",
          "type": "uint256"
        }
      ],
      "name": "transferFrom",
      "outputs": [
        {
          "internalType": "bool",
          "name": "",
          "type": "bool"
        }
      ],
      "stateMutability": "nonpayable",
      "type": "function"
    },
    {
      "inputs": [
        {
          "internalType": "address",
          "name": "newOwner",
          "type": "address"
        }
      ],
      "name": "transferOwnership",
      "outputs": [],
      "stateMutability": "nonpayable",
      "type": "function"
    }
  ],
  "bytecode": "0x608060405234801561000f575f5ffd5b5060405161127338038061127383398101604081905261002e91610403565b80604051806040016040528060098152602001682a30bc102a37b5b2b760b91b815250604051806040016040528060038152602001620a882b60eb1b815250816003908161007c91906104c0565b50600461008982826104c0565b5050506001600160a01b0381166100ba57604051631e4fbdf760e01b81525f60048201526024015b60405180910390fd5b6100c381610140565b50600680546001600160a01b0319166001600160a01b0383169081179091555f90815260076020526040808220805460ff199081166001908117909255308452919092208054909116909117905561013a8161011d601290565b61012890600a610673565b61013590620f4240610681565b610191565b506106dd565b600580546001600160a01b038381166001600160a01b0319831681179093556040519116919082907f8be0079c531659141344cd1fd0a4f28419497f9722a3daafe3b4186f6b6457e0905f90a35050565b6001600160a01b0382166101ba5760405163ec442f0560e01b81525f60048201526024016100b1565b6101c55f83836101c9565b5050565b6001600160a01b03831615806101e657506001600160a01b038216155b8061020857506001600160a01b0383165f9081526007602052604090205460ff165b8061022a57506001600160a01b0382165f9081526007602052604090205460ff165b1561023f5761023a8383836102dd565b505050565b5f61271061024e606484610681565b6102589190610698565b90505f61026582846106b7565b905081156102cb576006546102859086906001600160a01b0316846102dd565b6006546040518381526001600160a01b03918216918716907f5d37fd68fe66745a199f8c603e00ae02183f4aabb8ec0089589b0b40c4ead5e19060200160405180910390a35b6102d68585836102dd565b5050505050565b6001600160a01b038316610307578060025f8282546102fc91906106ca565b909155506103779050565b6001600160a01b0383165f90815260208190526040902054818110156103595760405163391434e360e21b81526001600160a01b038516600482015260248101829052604481018390526064016100b1565b6001600160a01b0384165f9081526020819052604090209082900390555b6001600160a01b038216610393576002805482900390556103b1565b6001600160a01b0382165f9081526020819052604090208054820190555b816001600160a01b0316836001600160a01b03167fddf252ad1be2c89b69c2b068fc378daa952ba7f163c4a11628f55a4df523b3ef836040516103f691815260200190565b60405180910390a3505050565b5f60208284031215610413575f5ffd5b81516001600160a01b0381168114610429575f5ffd5b9392505050565b634e487b7160e01b5f52604160045260245ffd5b600181811c9082168061045857607f821691505b60208210810361047657634e487b7160e01b5f52602260045260245ffd5b50919050565b601f82111561023a57805f5260205f20601f840160051c810160208510156104a15750805b601f840160051c820191505b818110156102d6575f81556001016104ad565b81516001600160401b038111156104d9576104d9610430565b6104ed816104e78454610444565b8461047c565b6020601f82116001811461051f575f83156105085750848201515b5f19600385901b1c1916600184901b1784556102d6565b5f84815260208120601f198516915b8281101561054e578785015182556020948501946001909201910161052e565b508482101561056b57868401515f19600387901b60f8161c191681555b50505050600190811b01905550565b634e487b7160e01b5f52601160045260245ffd5b6001815b60018411156105c9578085048111156105ad576105ad61057a565b60018416156105bb57908102905b60019390931c928002610592565b935093915050565b5f826105df5750600161066d565b816105eb57505f61066d565b8160018114610601576002811461060b57610627565b600191505061066d565b60ff84111561061c5761061c61057a565b50506001821b61066d565b5060208310610133831016604e8410600b841016171561064a575081810a61066d565b6106565f19848461058e565b805f19048211156106695761066961057a565b0290505b92915050565b5f61042960ff8416836105d1565b808202811582820484141761066d5761066d61057a565b5f826106b257634e487b7160e01b5f52601260045260245ffd5b500490565b8181038181111561066d5761066d61057a565b8082018082111561066d5761066d61057a565b610b89806106ea5f395ff3fe608060405234801561000f575f5ffd5b5060043610610106575f3560e01c8063715018a61161009e578063c2ed286b1161006e578063c2ed286b14610210578063cb4ca63114610223578063dd62ed3e14610245578063ea414b281461027d578063f2fde38b14610290575f5ffd5b8063715018a6146101da5780638da5cb5b146101e457806395d89b41146101f5578063a9059cbb146101fd575f5ffd5b80632dc0562d116100d95780632dc0562d14610170578063313ce5671461019b5780633b3b8e2e146101aa57806370a08231146101b2575f5ffd5b806306fdde031461010a578063095ea7b31461012857806318160ddd1461014b57806323b872dd1461015d575b5f5ffd5b6101126102a3565b60405161011f919061096f565b60405180910390f35b61013b6101363660046109bf565b610333565b604051901515815260200161011f565b6002545b60405190815260200161011f565b61013b61016b3660046109e7565b61034c565b600654610183906001600160a01b031681565b6040516001600160a01b03909116815260200161011f565b6040516012815260200161011f565b61014f606481565b61014f6101c0366004610a21565b6001600160a01b03165f9081526020819052604090205490565b6101e261036f565b005b6005546001600160a01b0316610183565b610112610382565b61013b61020b3660046109bf565b610391565b6101e261021e366004610a41565b61039e565b61013b610231366004610a21565b60076020525f908152604090205460ff1681565b61014f610253366004610a7a565b6001600160a01b039182165f90815260016020908152604080832093909416825291909152205490565b6101e261028b366004610a21565b610404565b6101e261029e366004610a21565b6104c2565b6060600380546102b290610aab565b80601f01602080910402602001604051908101604052809291908181526020018280546102de90610aab565b80156103295780601f1061030057610100808354040283529160200191610329565b820191905f5260205f20905b81548152906001019060200180831161030c57829003601f168201915b5050505050905090565b5f336103408185856104ff565b60019150505b92915050565b5f33610359858285610511565b61036485858561058d565b506001949350505050565b6103776105ea565b6103805f610617565b565b6060600480546102b290610aab565b5f3361034081858561058d565b6103a66105ea565b6001600160a01b0382165f81815260076020908152604091829020805460ff191685151590811790915591519182527f057c62cec6ccc6215fcd20f7aeb92798001e4898218f8865d9601d5f86dfab2f910160405180910390a25050565b61040c6105ea565b6001600160a01b0381166104715760405162461bcd60e51b815260206004820152602160248201527f5461782077616c6c65742063616e6e6f74206265207a65726f206164647265736044820152607360f81b60648201526084015b60405180910390fd5b600680546001600160a01b038381166001600160a01b0319831681179093556040519116919082907f849a2ad8ad386f1e9897e9e0a62d16771c675e4740986a16fb31bd8e1dde9c97905f90a35050565b6104ca6105ea565b6001600160a01b0381166104f357604051631e4fbdf760e01b81525f6004820152602401610468565b6104fc81610617565b50565b61050c8383836001610668565b505050565b6001600160a01b038381165f908152600160209081526040808320938616835292905220545f19811015610587578181101561057957604051637dc7a0d960e11b81526001600160a01b03841660048201526024810182905260448101839052606401610468565b61058784848484035f610668565b50505050565b6001600160a01b0383166105b657604051634b637e8f60e11b81525f6004820152602401610468565b6001600160a01b0382166105df5760405163ec442f0560e01b81525f6004820152602401610468565b61050c83838361073a565b6005546001600160a01b031633146103805760405163118cdaa760e01b8152336004820152602401610468565b600580546001600160a01b038381166001600160a01b0319831681179093556040519116919082907f8be0079c531659141344cd1fd0a4f28419497f9722a3daafe3b4186f6b6457e0905f90a35050565b6001600160a01b0384166106915760405163e602df0560e01b81525f6004820152602401610468565b6001600160a01b0383166106ba57604051634a1406b160e11b81525f6004820152602401610468565b6001600160a01b038085165f908152600160209081526040808320938716835292905220829055801561058757826001600160a01b0316846001600160a01b03167f8c5be1e5ebec7d5bd14f71427d1e84f3dd0314c0f7b2291e5b200ac8c7c3b9258460405161072c91815260200190565b60405180910390a350505050565b6001600160a01b038316158061075757506001600160a01b038216155b8061077957506001600160a01b0383165f9081526007602052604090205460ff165b8061079b57506001600160a01b0382165f9081526007602052604090205460ff165b156107ab5761050c838383610849565b5f6127106107ba606484610af7565b6107c49190610b0e565b90505f6107d18284610b2d565b90508115610837576006546107f19086906001600160a01b031684610849565b6006546040518381526001600160a01b03918216918716907f5d37fd68fe66745a199f8c603e00ae02183f4aabb8ec0089589b0b40c4ead5e19060200160405180910390a35b610842858583610849565b5050505050565b6001600160a01b038316610873578060025f8282546108689190610b40565b909155506108e39050565b6001600160a01b0383165f90815260208190526040902054818110156108c55760405163391434e360e21b81526001600160a01b03851660048201526024810182905260448101839052606401610468565b6001600160a01b0384165f9081526020819052604090209082900390555b6001600160a01b0382166108ff5760028054829003905561091d565b6001600160a01b0382165f9081526020819052604090208054820190555b816001600160a01b0316836001600160a01b03167fddf252ad1be2c89b69c2b068fc378daa952ba7f163c4a11628f55a4df523b3ef8360405161096291815260200190565b60405180910390a3505050565b602081525f82518060208401528060208501604085015e5f604082850101526040601f19601f83011684010191505092915050565b80356001600160a01b03811681146109ba575f5ffd5b919050565b5f5f604083850312156109d0575f5ffd5b6109d9836109a4565b946020939093013593505050565b5f5f5f606084860312156109f9575f5ffd5b610a02846109a4565b9250610a10602085016109a4565b929592945050506040919091013590565b5f60208284031215610a31575f5ffd5b610a3a826109a4565b9392505050565b5f5f60408385031215610a52575f5ffd5b610a5b836109a4565b915060208301358015158114610a6f575f5ffd5b809150509250929050565b5f5f60408385031215610a8b575f5ffd5b610a94836109a4565b9150610aa2602084016109a4565b90509250929050565b600181811c90821680610abf57607f821691505b602082108103610add57634e487b7160e01b5f52602260045260245ffd5b50919050565b634e487b7160e01b5f52601160045260245ffd5b808202811582820484141761034657610346610ae3565b5f82610b2857634e487b7160e01b5f52601260045260245ffd5b500490565b8181038181111561034657610346610ae3565b8082018082111561034657610346610ae356fea2646970667358221220284866bbadd4bcf98c4470cfef93a2d22116d192f8a9cb1e40255d0137a4596064736f6c634300081c0033",
  "linkReferences": {},
  "deployedLinkReferences": {},
  "immutableReferences": {},
  "inputSourceName": "project/contracts/TaxToken.sol",
  "buildInfoId": "solc-0_8_28-2b312a64dd315f9bd07f0fda6936b12ff9455da5"
}